{
  "address": "0x757C586A39C7e07D62da23ABE6398a4F1De54AEf",
  "abi": [
    {
      "inputs": [
        {
          "internalType": "address",
          "name": "_mailBox",
          "type": "address"
        },
        {
          "internalType": "address",
          "name": "_igp",
          "type": "address"
        }
      ],
      "stateMutability": "nonpayable",
      "type": "constructor"
    },
    {
      "inputs": [
        {
          "internalType": "uint256",
          "name": "domain",
          "type": "uint256"
        },
        {
          "internalType": "address",
          "name": "managerAddress",
          "type": "address"
        }
      ],
      "name": "addDomain",
      "outputs": [],
      "stateMutability": "nonpayable",
      "type": "function"
    },
    {
      "inputs": [],
      "name": "count",
      "outputs": [
        {
          "internalType": "uint256",
          "name": "",
          "type": "uint256"
        }
      ],
      "stateMutability": "view",
      "type": "function"
    },
    {
      "inputs": [
        {
          "internalType": "uint256",
          "name": "",
          "type": "uint256"
        }
      ],
      "name": "domainToAddress",
      "outputs": [
        {
          "internalType": "address",
          "name": "",
          "type": "address"
        }
      ],
      "stateMutability": "view",
      "type": "function"
    },
    {
      "inputs": [
        {
          "internalType": "uint32",
          "name": "_origin",
          "type": "uint32"
        },
        {
          "internalType": "bytes32",
          "name": "_sender",
          "type": "bytes32"
        },
        {
          "internalType": "bytes",
          "name": "_body",
          "type": "bytes"
        }
      ],
      "name": "handle",
      "outputs": [],
      "stateMutability": "nonpayable",
      "type": "function"
    },
    {
      "inputs": [],
      "name": "igp",
      "outputs": [
        {
          "internalType": "contract IInterchainGasPaymaster",
          "name": "",
          "type": "address"
        }
      ],
      "stateMutability": "view",
      "type": "function"
    },
    {
      "inputs": [],
      "name": "interchainSecurityModule",
      "outputs": [
        {
          "internalType": "address",
          "name": "",
          "type": "address"
        }
      ],
      "stateMutability": "pure",
      "type": "function"
    },
    {
      "inputs": [],
      "name": "mailBox",
      "outputs": [
        {
          "internalType": "contract IMailbox",
          "name": "",
          "type": "address"
        }
      ],
      "stateMutability": "view",
      "type": "function"
    },
    {
      "inputs": [
        {
          "internalType": "uint32",
          "name": "domain",
          "type": "uint32"
        }
      ],
      "name": "poke",
      "outputs": [],
      "stateMutability": "payable",
      "type": "function"
    },
    {
      "stateMutability": "payable",
      "type": "receive"
    }
  ],
  "transactionHash": "0x68bf221fc764b4bc31abd79275462fea22e6ee7a5c9bc7117000f764d32698aa",
  "args": [
    "0xCC737a94FecaeC165AbCf12dED095BB13F037685",
    "0x8f9C3888bFC8a5B25AED115A82eCbb788b196d2a"
  ],
  "numDeployments": 1,
  "solcInputHash": "911740e6e1f329a06ad388afd7d2fea2",
  "bytecode": "0x60c060405234801561001057600080fd5b5060405161064838038061064883398101604081905261002f91610062565b6001600160a01b039182166080521660a052610095565b80516001600160a01b038116811461005d57600080fd5b919050565b6000806040838503121561007557600080fd5b61007e83610046565b915061008c60208401610046565b90509250929050565b60805160a0516105816100c7600039600081816101d2015261030001526000818160eb015261021a01526105816000f3fe60806040526004361061006f5760003560e01c806306661abd1461007b578063345f0ffa146100a457806356d5d475146100b95780636bd5c4e6146100d9578063a184a2ce1461011a578063c94bacaa14610163578063de523cf314610199578063f28b2daa146101c057600080fd5b3661007657005b600080fd5b34801561008757600080fd5b5061009160015481565b6040519081526020015b60405180910390f35b6100b76100b2366004610397565b6101f4565b005b3480156100c557600080fd5b506100b76100d43660046103b9565b610363565b3480156100e557600080fd5b5061010d7f000000000000000000000000000000000000000000000000000000000000000081565b60405161009b919061043f565b34801561012657600080fd5b506100b7610135366004610453565b60009182526020829052604090912080546001600160a01b0319166001600160a01b03909216919091179055565b34801561016f57600080fd5b5061010d61017e36600461048f565b6000602081905290815260409020546001600160a01b031681565b3480156101a557600080fd5b5073b45e9dad573ac59f61b05d06b8cc59728b5b9e6f61010d565b3480156101cc57600080fd5b5061010d7f000000000000000000000000000000000000000000000000000000000000000081565b63ffffffff8116600090815260208190526040812054620186a091906001600160a01b037f000000000000000000000000000000000000000000000000000000000000000081169163fa31de019186911633604051602001610256919061043f565b6040516020818303038152906040526040518463ffffffff1660e01b8152600401610283939291906104a8565b6020604051808303816000875af11580156102a2573d6000803e3d6000fd5b505050506040513d601f19601f820116820180604052508101906102c6919061050b565b604051630237e58360e31b81526004810182905263ffffffff85166024820152604481018490523060648201529091506001600160a01b037f000000000000000000000000000000000000000000000000000000000000000016906311bf2c189034906084016000604051808303818588803b15801561034557600080fd5b505af1158015610359573d6000803e3d6000fd5b5050505050505050565b6001805490600061037383610524565b919050555050505050565b803563ffffffff8116811461039257600080fd5b919050565b6000602082840312156103a957600080fd5b6103b28261037e565b9392505050565b600080600080606085870312156103cf57600080fd5b6103d88561037e565b93506020850135925060408501356001600160401b03808211156103fb57600080fd5b818701915087601f83011261040f57600080fd5b81358181111561041e57600080fd5b88602082850101111561043057600080fd5b95989497505060200194505050565b6001600160a01b0391909116815260200190565b6000806040838503121561046657600080fd5b8235915060208301356001600160a01b038116811461048457600080fd5b809150509250929050565b6000602082840312156104a157600080fd5b5035919050565b63ffffffff8416815260006020848184015260606040840152835180606085015260005b818110156104e8578581018301518582016080015282016104cc565b506000608082860101526080601f19601f83011685010192505050949350505050565b60006020828403121561051d57600080fd5b5051919050565b60006001820161054457634e487b7160e01b600052601160045260246000fd5b506001019056fea2646970667358221220fb0f5ad5cb436f2b8155b3bc0d1424a5c04fb06c8d89019142a5591f161e225a64736f6c63430008140033",
  "devdoc": {
    "kind": "dev",
    "methods": {
      "handle(uint32,bytes32,bytes)": {
        "params": {
          "_body": "Raw bytes content of message body",
          "_origin": "Domain ID of the chain from which the message came",
          "_sender": "Address of the message sender on the origin chain as bytes32"
        }
      }
    },
    "version": 1
  },
  "userdoc": {
    "kind": "user",
    "methods": {
      "handle(uint32,bytes32,bytes)": {
        "notice": "Handle an interchain message"
      }
    },
    "version": 1
  },
  "storageLayout": {
    "storage": [
      {
        "astId": 191,
        "contract": "contracts/Manager.sol:Manager",
        "label": "domainToAddress",
        "offset": 0,
        "slot": "0",
        "type": "t_mapping(t_uint256,t_address)"
      },
      {
        "astId": 193,
        "contract": "contracts/Manager.sol:Manager",
        "label": "count",
        "offset": 0,
        "slot": "1",
        "type": "t_uint256"
      }
    ],
    "types": {
      "t_address": {
        "encoding": "inplace",
        "label": "address",
        "numberOfBytes": "20"
      },
      "t_mapping(t_uint256,t_address)": {
        "encoding": "mapping",
        "key": "t_uint256",
        "label": "mapping(uint256 => address)",
        "numberOfBytes": "32",
        "value": "t_address"
      },
      "t_uint256": {
        "encoding": "inplace",
        "label": "uint256",
        "numberOfBytes": "32"
      }
    }
  }
}