{
  "address": "0xf444c08B169a838147F7E2c16e57C1b5B38702dE",
  "abi": [
    {
      "inputs": [
        {
          "internalType": "address",
          "name": "IUniswapInteract",
          "type": "address"
        },
        {
          "internalType": "address",
          "name": "poolManager",
          "type": "address"
        },
        {
          "internalType": "address",
          "name": "IMailbox",
          "type": "address"
        },
        {
          "internalType": "address",
          "name": "IInterchainGasPayMaster",
          "type": "address"
        },
        {
          "internalType": "bytes32",
          "name": "salt",
          "type": "bytes32"
        }
      ],
      "name": "deploy",
      "outputs": [],
      "stateMutability": "nonpayable",
      "type": "function"
    },
    {
      "inputs": [
        {
          "internalType": "address",
          "name": "owner",
          "type": "address"
        },
        {
          "internalType": "address",
          "name": "uniswapInteraction",
          "type": "address"
        },
        {
          "internalType": "address",
          "name": "poolManager",
          "type": "address"
        },
        {
          "internalType": "address",
          "name": "mailBox",
          "type": "address"
        },
        {
          "internalType": "address",
          "name": "igp",
          "type": "address"
        },
        {
          "internalType": "bytes32",
          "name": "salt",
          "type": "bytes32"
        }
      ],
      "name": "getPrecomputedHookAddress",
      "outputs": [
        {
          "internalType": "address",
          "name": "",
          "type": "address"
        }
      ],
      "stateMutability": "view",
      "type": "function"
    },
    {
      "inputs": [
        {
          "internalType": "uint256",
          "name": "",
          "type": "uint256"
        }
      ],
      "name": "hooks",
      "outputs": [
        {
          "internalType": "address",
          "name": "",
          "type": "address"
        }
      ],
      "stateMutability": "view",
      "type": "function"
    }
  ],
  "transactionHash": "0x0bdae7b8c5bb854c59f9132662e8c47962f79c08d591b7b73e066998b608262a",
  "args": [],
  "numDeployments": 1,
  "solcInputHash": "6e146c80834829f6e55eae212bce8c8f",
  "bytecode": "0x608060405234801561001057600080fd5b50614976806100206000396000f3fe608060405234801561001057600080fd5b50600436106100415760003560e01c8063864c17d714610046578063c4ceb78914610075578063f84b2a3f1461008a575b600080fd5b6100596100543660046102b3565b61009d565b6040516001600160a01b03909116815260200160405180910390f35b6100886100833660046102e8565b6100c7565b005b610059610098366004610344565b610174565b600081815481106100ad57600080fd5b6000918252602090912001546001600160a01b0316905081565b6100fa604051806040016040528060128152602001713232b83637bcb4b733903437b7b5b997171760711b81525061023b565b6000818686868660405161010d906102a6565b61011a94939291906103b1565b8190604051809103906000f590508015801561013a573d6000803e3d6000fd5b5081546001810183556000928352602090922090910180546001600160a01b0319166001600160a01b039092169190911790555050505050565b60008060405180602001610187906102a6565b601f1982820381018352601f9091011660408190526101b09089908990899089906020016103b1565b60408051601f19818403018152908290526101ce9291602001610400565b60408051601f1981840301815282825280516020918201206001600160f81b0319828501523060601b6001600160601b0319166021850152603584019690965260558084019690965281518084039096018652607590920190528351930192909220979650505050505050565b61027e8160405160240161024f919061042f565b60408051601f198184030181529190526020810180516001600160e01b031663104c13eb60e21b179052610281565b50565b61027e8160006a636f6e736f6c652e6c6f679050600080835160208501845afa505050565b6144de8061046383390190565b6000602082840312156102c557600080fd5b5035919050565b80356001600160a01b03811681146102e357600080fd5b919050565b600080600080600060a0868803121561030057600080fd5b610309866102cc565b9450610317602087016102cc565b9350610325604087016102cc565b9250610333606087016102cc565b949793965091946080013592915050565b60008060008060008060c0878903121561035d57600080fd5b610366876102cc565b9550610374602088016102cc565b9450610382604088016102cc565b9350610390606088016102cc565b925061039e608088016102cc565b915060a087013590509295509295509295565b6001600160a01b03948516815292841660208401529083166040830152909116606082015260800190565b60005b838110156103f75781810151838201526020016103df565b50506000910152565b600083516104128184602088016103dc565b8351908301906104268183602088016103dc565b01949350505050565b602081526000825180602084015261044e8160408501602087016103dc565b601f01601f1916919091016040019291505056fe610100604052600a805463ffffffff60a01b191690553480156200002257600080fd5b50604051620044de380380620044de83398101604081905262000045916200022c565b6001600160a01b038316608052826200005e3062000080565b506001600160a01b0393841660a05290831660c05290911660e0525062000289565b62000115816200010f6040805161010081018252600080825260208201819052918101829052606081018290526080810182905260a0810182905260c0810182905260e08101919091525060408051610100810182526001808252600060208301819052928201839052606082018390526080820181905260a082015260c0810182905260e081019190915290565b62000118565b50565b805115156001609f1b83161515141580620001415750602081015115156001609e1b8316151514155b806200015b5750604081015115156001609d1b8316151514155b80620001755750606081015115156001609c1b8316151514155b806200018f5750608081015115156001609b1b8316151514155b80620001a9575060a081015115156001609a1b8316151514155b80620001c3575060c08101511515600160991b8316151514155b80620001dd575060e08101511515600160981b8316151514155b156200020b57604051630732d7b560e51b81526001600160a01b038316600482015260240160405180910390fd5b5050565b80516001600160a01b03811681146200022757600080fd5b919050565b600080600080608085870312156200024357600080fd5b6200024e856200020f565b93506200025e602086016200020f565b92506200026e604086016200020f565b91506200027e606086016200020f565b905092959194509250565b60805160a05160c05160e05161417a62000364600039600081816109a9015281816116c5015281816118d9015261280b015260008181610557015281816115ca0152818161182001526126c90152600081816105a101528181610a0701528181610cdf01528181610deb01528181611180015281816111ab015281816111d5015281816114360152818161146001528181611aca01528181611af101528181611e3f01528181611ef601528181611fbe01528181612047015261210a0152600081816108c4015281816121b00152612519015261417a6000f3fe6080604052600436106101fb5760003560e01c806306661abd146102075780630ac10973146102305780631087004a1461025057806312386029146102725780632492963b1461029f5780632794823f146102bf5780632ab7a3e2146102d25780632f1ec5e01461030657806330b7cdef1461031c5780633440d82014610355578063345f0ffa14610375578063346c609e146103885780634deefab2146103b55780634df87c09146103d55780634faaefae1461041557806356d5d47514610435578063575e24b414610455578063612c39b71461047557806369d7e873146105185780636bd5c4e61461054557806378e1abb5146105795780638a6e59461461058f57806391e834a5146105c357806395ae34ed146105f057806396e13e471461061d578063a184a2ce14610633578063a910f80f1461067c578063ab6291fe14610697578063b069f61f146106c4578063b09a078514610766578063b47b2fb114610786578063b6a8b0fa146107a6578063beecd2bd146107c1578063c94bacaa14610808578063d94a7e531461083e578063dc4c90d3146108b2578063de4a787f146108e6578063de523cf314610923578063dff78df714610941578063e1b4af69146107a6578063e8c55a6114610957578063ead0f5a714610977578063f28b2daa14610997578063fe9a6f45146109cb57600080fd5b3661020257005b600080fd5b34801561021357600080fd5b5061021d60085481565b6040519081526020015b60405180910390f35b34801561023c57600080fd5b5061021d61024b3660046132d7565b6109e6565b34801561025c57600080fd5b5061027061026b366004613330565b610c82565b005b34801561027e57600080fd5b50600554610292906001600160a01b031681565b6040516102279190613371565b3480156102ab57600080fd5b506102706102ba366004613385565b6110a4565b6102706102cd3660046133ec565b6113d4565b3480156102de57600080fd5b506102f26102ed3660046134c4565b611757565b60405162ffffff9091168152602001610227565b34801561031257600080fd5b5061021d60025481565b34801561032857600080fd5b5061033c61033736600461353f565b6117a2565b6040516001600160e01b03199091168152602001610227565b34801561036157600080fd5b5061033c6103703660046135c4565b6117bd565b610270610383366004613622565b6117fa565b34801561039457600080fd5b5061021d6103a336600461363d565b600f6020526000908152604090205481565b3480156103c157600080fd5b50600a54610292906001600160a01b031681565b3480156103e157600080fd5b506104056103f036600461363d565b60076020526000908152604090205460ff1681565b6040519015158152602001610227565b34801561042157600080fd5b50600454610292906001600160a01b031681565b34801561044157600080fd5b5061027061045036600461365a565b611961565b34801561046157600080fd5b5061033c6104703660046134c4565b611d26565b34801561048157600080fd5b5061050b6040805161010081018252600080825260208201819052918101829052606081018290526080810182905260a0810182905260c0810182905260e08101919091525060408051610100810182526001808252600060208301819052928201839052606082018390526080820181905260a082015260c0810182905260e081019190915290565b60405161022791906136b3565b34801561052457600080fd5b5061021d61053336600461363d565b60116020526000908152604090205481565b34801561055157600080fd5b506102927f000000000000000000000000000000000000000000000000000000000000000081565b34801561058557600080fd5b5061021d600b5481565b34801561059b57600080fd5b506102927f000000000000000000000000000000000000000000000000000000000000000081565b3480156105cf57600080fd5b5061021d6105de366004613622565b600e6020526000908152604090205481565b3480156105fc57600080fd5b5061021d61060b366004613622565b60106020526000908152604090205481565b34801561062957600080fd5b5061021d60015481565b34801561063f57600080fd5b5061027061064e36600461373c565b60009182526009602052604090912080546001600160a01b0319166001600160a01b03909216919091179055565b34801561068857600080fd5b5061033c61033736600461376c565b3480156106a357600080fd5b506106b76106b23660046137dc565b6121a3565b604051610227919061386d565b3480156106d057600080fd5b506107266106df36600461363d565b6006602052600090815260409020805460018201546002928301546001600160a01b03928316938284169362ffffff600160a01b85041693600160b81b900490910b911685565b604080516001600160a01b039687168152948616602086015262ffffff9093169284019290925260020b606083015291909116608082015260a001610227565b34801561077257600080fd5b5061027061078136600461395b565b612291565b34801561079257600080fd5b5061033c6107a136600461353f565b61241f565b3480156107b257600080fd5b5061033c610337366004613a31565b3480156107cd57600080fd5b506102706107dc36600461363d565b600480546001600160a01b039092166001600160a01b0319928316811790915560058054909216179055565b34801561081457600080fd5b50610292610823366004613a8f565b6009602052600090815260409020546001600160a01b031681565b34801561084a57600080fd5b50610889610859366004613a8f565b600d602052600090815260409020805460018201546002830154600390930154919290916001600160a01b031684565b604080519485526020850193909352918301526001600160a01b03166060820152608001610227565b3480156108be57600080fd5b506102927f000000000000000000000000000000000000000000000000000000000000000081565b3480156108f257600080fd5b5061027061090136600461363d565b600a80546001600160a01b0319166001600160a01b0392909216919091179055565b34801561092f57600080fd5b50600a546001600160a01b0316610292565b34801561094d57600080fd5b5061021d60035481565b34801561096357600080fd5b50610270610972366004613b17565b612448565b34801561098357600080fd5b50610270610992366004613b78565b612637565b3480156109a357600080fd5b506102927f000000000000000000000000000000000000000000000000000000000000000081565b3480156109d757600080fd5b5061033c6103373660046134c4565b6001600160a01b0383811660009081526006602052604081209091829182917f00000000000000000000000000000000000000000000000000000000000000001690634ff490fb908787610a3e426305f5e100613bd3565b6040518563ffffffff1660e01b8152600401610a5d9493929190613c2b565b60408051808303816000875af1158015610a7b573d6000803e3d6000fd5b505050506040513d601f19601f82011682018060405250810190610a9f9190613c6d565b60055491935091506001600160a01b039081169087161015610bb0576001600160a01b03808716600090815260066020526040902054610af2911633610ae485613ca0565b6001600160801b03166128cb565b6004546001600160a01b03166342966c68610b0c83613ca0565b6040518263ffffffff1660e01b8152600401610b289190613cc3565b600060405180830381600087803b158015610b4257600080fd5b505af1158015610b56573d6000803e3d6000fd5b50505050610b956040518060400160405280600781526020016622b0b932b7321d60c91b81525082610b8790613ca0565b6001600160801b03166129c9565b610b9e82613ca0565b6001600160801b031692505050610c7b565b6001600160a01b03808716600090815260066020526040902060010154610bdc911633610ae484613ca0565b610c096040518060400160405280600781526020016622b0b932b7321d60c91b81525083610b8790613ca0565b6004546001600160a01b03166342966c68610c2384613ca0565b6040518263ffffffff1660e01b8152600401610c3f9190613cc3565b600060405180830381600087803b158015610c5957600080fd5b505af1158015610c6d573d6000803e3d6000fd5b5050505080610b9e90613ca0565b9392505050565b610c8e83333084612a12565b6005546000906001600160a01b039081169085161015610cc4575060018215158114610cbb576000610cbe565b60015b50610cd9565b5060008215610cd4576001610cd7565b60005b505b610d04847f0000000000000000000000000000000000000000000000000000000000000000846128cb565b6005546040516370a0823160e01b81526000916001600160a01b0316906370a0823190610d35903090600401613371565b602060405180830381865afa158015610d52573d6000803e3d6000fd5b505050506040513d601f19601f82011682018060405250810190610d769190613cd7565b90506000856001600160a01b03166370a08231306040518263ffffffff1660e01b8152600401610da69190613371565b602060405180830381865afa158015610dc3573d6000803e3d6000fd5b505050506040513d601f19601f82011682018060405250810190610de79190613cd7565b90507f00000000000000000000000000000000000000000000000000000000000000006001600160a01b031663e7d7146b60066000896001600160a01b03166001600160a01b031681526020019081526020016000206040518060600160405280871515815260200188815260200187610e755773fffd8963efd1fc6a506488495d951d5263988d25610e7c565b6401000276a45b6001600160a01b03169052610e944262989680613bd3565b6040518463ffffffff1660e01b8152600401610eb293929190613cf0565b60408051808303816000875af1158015610ed0573d6000803e3d6000fd5b505050506040513d601f19601f82011682018060405250810190610ef49190613d30565b50506040516370a0823160e01b81526001600160a01b038716906370a0823190610f22903090600401613371565b602060405180830381865afa158015610f3f573d6000803e3d6000fd5b505050506040513d601f19601f82011682018060405250810190610f639190613cd7565b811015610fec57610fec863383896001600160a01b03166370a08231306040518263ffffffff1660e01b8152600401610f9c9190613371565b602060405180830381865afa158015610fb9573d6000803e3d6000fd5b505050506040513d601f19601f82011682018060405250810190610fdd9190613cd7565b610fe79190613d54565b6128cb565b6005546040516370a0823160e01b81526001600160a01b03909116906370a082319061101c903090600401613371565b602060405180830381865afa158015611039573d6000803e3d6000fd5b505050506040513d601f19601f8201168201806040525081019061105d9190613cd7565b82101561109c576005546040516370a0823160e01b815261109c916001600160a01b0316903390859083906370a0823190610f9c903090600401613371565b505050505050565b6110b084333086612a12565b6000806110bc84612b14565b905060006110c984612b14565b6005549091506001600160a01b0390811690881610156110f5576110ee828288612f2b565b9250611103565b611100828288612f95565b92505b6004805460405163140e25ad60e31b8152676765c793fa10079d601b1b9281018390526001600160a01b039091169063a0712d6890602401600060405180830381600087803b15801561115557600080fd5b505af1158015611169573d6000803e3d6000fd5b50506005546111a592506001600160a01b031690507f0000000000000000000000000000000000000000000000000000000000000000836128cb565b6111d0887f0000000000000000000000000000000000000000000000000000000000000000896128cb565b6000807f00000000000000000000000000000000000000000000000000000000000000006001600160a01b031663f5ea597c600660008d6001600160a01b03166001600160a01b0316815260200190815260200160002060405180606001604052808c60020b81526020018b60020b81526020018a600f0b815250426298968061125a9190613bd3565b6040518463ffffffff1660e01b815260040161127893929190613d67565b60408051808303816000875af1158015611296573d6000803e3d6000fd5b505050506040513d601f19601f820116820180604052508101906112ba9190613d30565b60055491935091506001600160a01b03908116908b161015611351576112e18a33846128cb565b6004546001600160a01b03166342966c686112fc8386613d54565b6040518263ffffffff1660e01b815260040161131a91815260200190565b600060405180830381600087803b15801561133457600080fd5b505af1158015611348573d6000803e3d6000fd5b505050506113c8565b61135c8a33836128cb565b6004546001600160a01b03166342966c686113778486613d54565b6040518263ffffffff1660e01b815260040161139591815260200190565b600060405180830381600087803b1580156113af57600080fd5b505af11580156113c3573d6000803e3d6000fd5b505050505b50505050505050505050565b6113e085333087612a12565b6005546000906001906001600160a01b03908116908816101561141a57600191508015158214611411576000611414565b60015b50611430565b60009150801561142b57600161142e565b60005b505b61145b877f0000000000000000000000000000000000000000000000000000000000000000886128cb565b6000807f00000000000000000000000000000000000000000000000000000000000000006001600160a01b031663e7d7146b600660008c6001600160a01b03166001600160a01b03168152602001908152602001600020604051806060016040528088151581526020018c8152602001886114ea5773fffd8963efd1fc6a506488495d951d5263988d256114f1565b6401000276a45b6001600160a01b031690526115094262989680613bd3565b6040518463ffffffff1660e01b815260040161152793929190613cf0565b60408051808303816000875af1158015611545573d6000803e3d6000fd5b505050506040513d601f19601f820116820180604052508101906115699190613d30565b915091506115808261157a90613da3565b82612fcb565b82156115aa57831561159d5761159581613da3565b600b556115aa565b6115a682613da3565b600b555b63ffffffff87166000908152600960205260408120546001600160a01b037f000000000000000000000000000000000000000000000000000000000000000081169163fa31de01918b916115fe9116613012565b600b548b8b60405160200161162f939291909283526001600160a01b03918216602084015216604082015260600190565b60408051601f1981840301815290829052611651916000903390602001613dbf565b6040516020818303038152906040526040518463ffffffff1660e01b815260040161167e93929190613df5565b6020604051808303816000875af115801561169d573d6000803e3d6000fd5b505050506040513d601f19601f820116820180604052508101906116c19190613cd7565b90507f00000000000000000000000000000000000000000000000000000000000000006001600160a01b03166311bf2c1834838b62030d40306040518663ffffffff1660e01b81526004016117199493929190613e1a565b6000604051808303818588803b15801561173257600080fd5b505af1158015611746573d6000803e3d6000fd5b505050505050505050505050505050565b60008054610bb89082906117719063ffffffff1642613e44565b9050603c611780826064613e61565b61178a9190613e9e565b6117949083613ec0565b925050505b95945050505050565b6000604051630a85dc2960e01b815260040160405180910390fd5b60028054600091826117ce83613edc565b90915550506001600160a01b03861630146117e857600080fd5b506301a206c160e51b95945050505050565b63ffffffff8116600090815260096020526040812054620186a091906001600160a01b037f000000000000000000000000000000000000000000000000000000000000000081169163fa31de019186916118549116613012565b336040516020016118659190613371565b6040516020818303038152906040526040518463ffffffff1660e01b815260040161189293929190613df5565b6020604051808303816000875af11580156118b1573d6000803e3d6000fd5b505050506040513d601f19601f820116820180604052508101906118d59190613cd7565b90507f00000000000000000000000000000000000000000000000000000000000000006001600160a01b03166311bf2c1834838686306040518663ffffffff1660e01b815260040161192a9493929190613e1a565b6000604051808303818588803b15801561194357600080fd5b505af1158015611957573d6000803e3d6000fd5b5050505050505050565b6008805490600061197183613edc565b909155506000905080808061198885870187613ef5565b9250925092508160ff16600003611c8d576000806000858060200190518101906119b29190613f53565b9250925092508460ff16600003611c89576004805460405163140e25ad60e31b81529182018590526001600160a01b03169063a0712d6890602401600060405180830381600087803b158015611a0757600080fd5b505af1158015611a1b573d6000803e3d6000fd5b50506040516370a0823160e01b8152600092506001600160a01b03851691506370a0823190611a4e903090600401613371565b602060405180830381865afa158015611a6b573d6000803e3d6000fd5b505050506040513d601f19601f82011682018060405250810190611a8f9190613cd7565b6005549091506000906001600160a01b039081169085161015611ab457506000611ab8565b5060015b600554611aef906001600160a01b03167f0000000000000000000000000000000000000000000000000000000000000000876128cb565b7f00000000000000000000000000000000000000000000000000000000000000006001600160a01b031663e7d7146b60066000876001600160a01b03166001600160a01b031681526020019081526020016000206040518060600160405280851515815260200189815260200185611b7b5773fffd8963efd1fc6a506488495d951d5263988d25611b82565b6401000276a45b6001600160a01b03169052611b9a4262989680613bd3565b6040518463ffffffff1660e01b8152600401611bb893929190613cf0565b60408051808303816000875af1158015611bd6573d6000803e3d6000fd5b505050506040513d601f19601f82011682018060405250810190611bfa9190613d30565b50506040516370a0823160e01b81526000906001600160a01b038616906370a0823190611c2b903090600401613371565b602060405180830381865afa158015611c48573d6000803e3d6000fd5b505050506040513d601f19601f82011682018060405250810190611c6c9190613cd7565b905082811115611c8557611c858585610fe78685613d54565b5050505b5050505b8160ff166001036119575760008084806020019051810190611caf9190613d30565b600a54600160a01b900463ffffffff166000908152600e6020526040812080549395509193508392611ce2908490613bd3565b9091555050600a54600160a01b900463ffffffff1660009081526010602052604081208054849290611d15908490613bd3565b909155505050505050505050505050565b6000611d546040518060400160405280600b81526020016a04265666f726520537761760ac1b81525061301e565b60018054906000611d6483613edc565b90915550506005546000906001600160a01b0316611d85602088018861363d565b6001600160a01b031614611da557611da0602087018761363d565b611db5565b611db5604087016020880161363d565b600a54600160a01b900463ffffffff166000908152601060209081526040808320546001600160a01b038516845260119092528220549293509091611dfa9190613bd3565b9050611e2d816040518060400160405280600f81526020016e1a5cc8189bdbdcdd08185b5bdd5b9d608a1b815250613064565b600554611e64906001600160a01b03167f0000000000000000000000000000000000000000000000000000000000000000836128cb565b600a54600160a01b900463ffffffff166000908152600e60209081526040808320546001600160a01b0386168452600f90925290912054611ea59190613bd3565b811115611ebe57506315d7892d60e21b91506117999050565b8015612156576005546001600160a01b039081169083161015611f96576001600160a01b0382811660009081526006602052604081207f000000000000000000000000000000000000000000000000000000000000000090921691637a54f20a9184611f2e426305f5e100613bd3565b6040518563ffffffff1660e01b8152600401611f4d9493929190613f8b565b60408051808303816000875af1158015611f6b573d6000803e3d6000fd5b505050506040513d601f19601f82011682018060405250810190611f8f9190613d30565b5050612156565b6040516370a0823160e01b815261202c906001600160a01b038416906370a0823190611fe6907f000000000000000000000000000000000000000000000000000000000000000090600401613371565b602060405180830381865afa158015612003573d6000803e3d6000fd5b505050506040513d601f19601f820116820180604052508101906120279190613cd7565b6130a9565b6001600160a01b0382811660009081526006602052604081207f000000000000000000000000000000000000000000000000000000000000000090921691637a54f20a91849061207f4262989680613bd3565b6040518563ffffffff1660e01b815260040161209e9493929190613f8b565b60408051808303816000875af11580156120bc573d6000803e3d6000fd5b505050506040513d601f19601f820116820180604052508101906120e09190613d30565b50506040516370a0823160e01b8152612132906001600160a01b038416906370a0823190611fe6907f000000000000000000000000000000000000000000000000000000000000000090600401613371565b612156604051806040016040528060038152602001622334b760e91b81525061301e565b6001600160a01b038216600090815260116020908152604080832054600f909252822080549192909161218a908490613d54565b909155506315d7892d60e21b9998505050505050505050565b6060336001600160a01b037f000000000000000000000000000000000000000000000000000000000000000016146121ee5760405163570c108560e11b815260040160405180910390fd5b600080306001600160a01b0316858560405161220b929190613fb5565b6000604051808303816000865af19150503d8060008114612248576040519150601f19603f3d011682016040523d82523d6000602084013e61224d565b606091505b5091509150811561226157915061228b9050565b8051600003612283576040516314815f4760e31b815260040160405180910390fd5b805160208201fd5b92915050565b60408051808201909152600781526620a6b7bab73a1d60c91b60208201526122c2906122bd8587613fc5565b6129c9565b6005546122e3906001600160a01b031633306122de8789613fc5565b612a12565b60408051608081018252858152600c54602080830182815283850188815233606086019081526000948552600d90935294832093518455516001840155925160028301559151600390910180546001600160a01b0319166001600160a01b039092169190911790555b825181101561241857836011600085848151811061236c5761236c613fdc565b60200260200101516001600160a01b03166001600160a01b0316815260200190815260200160002060008282546123a39190613bd3565b909155506123b390508585613fc5565b600f60008584815181106123c9576123c9613fdc565b60200260200101516001600160a01b03166001600160a01b0316815260200190815260200160002060008282546124009190613bd3565b9091555081905061241081613edc565b91505061234c565b5050505050565b600380546000918261243083613edc565b9091555063b47b2fb160e01b98975050505050505050565b6040805160a0810182526000808252602082018190529181018290526060810182905260808101919091526005546001600160a01b0390811690851610156124c857506040805160a0810182526001600160a01b038086168252600554166020820152610bb891810191909152603c606082015260006080820152612502565b506040805160a0810182526005546001600160a01b03908116825285166020820152610bb891810191909152603c60608201523060808201525b60405163695c5bf560e01b81526001600160a01b037f0000000000000000000000000000000000000000000000000000000000000000169063695c5bf59061255290849087908790600401613ff2565b6020604051808303816000875af1158015612571573d6000803e3d6000fd5b505050506040513d601f19601f820116820180604052508101906125959190614052565b506001600160a01b03938416600090815260066020908152604091829020835181546001600160a01b031990811691891691909117825591840151600182018054948601516060870151928a166001600160b81b031990961695909517600160a01b62ffffff968716021762ffffff60b81b1916600160b81b959092169490940217909255608090920151600290910180549092169416939093179092555050565b600554612653906001600160a01b031633306122de8688613fc5565b60408051608081018252848152600c54602080830182815283850187815233606086019081526000948552600d90935294832093518455516001840155925160028301559151600390910180546001600160a01b0319166001600160a01b039092169190911790555b81518110156128c55760007f00000000000000000000000000000000000000000000000000000000000000006001600160a01b031663fa31de0184848151811061270857612708613fdc565b60200260200101516127586009600088888151811061272957612729613fdc565b60209081029190910181015163ffffffff168252810191909152604001600020546001600160a01b0316613012565b876127638a82613fc5565b60408051602081019390935282015260600160408051601f1981840301815290829052612797916001903390602001613dbf565b6040516020818303038152906040526040518463ffffffff1660e01b81526004016127c493929190613df5565b6020604051808303816000875af11580156127e3573d6000803e3d6000fd5b505050506040513d601f19601f820116820180604052508101906128079190613cd7565b90507f00000000000000000000000000000000000000000000000000000000000000006001600160a01b03166311bf2c1866071afd498d00008386868151811061285357612853613fdc565b6020026020010151620186a0306040518663ffffffff1660e01b815260040161287f9493929190613e1a565b6000604051808303818588803b15801561289857600080fd5b505af11580156128ac573d6000803e3d6000fd5b50505050505080806128bd90613edc565b9150506126bc565b50505050565b604080516001600160a01b038481166024830152604480830185905283518084039091018152606490920183526020820180516001600160e01b031663a9059cbb60e01b1790529151600092839290871691612927919061406f565b6000604051808303816000865af19150503d8060008114612964576040519150601f19603f3d011682016040523d82523d6000602084013e612969565b606091505b5091509150818015612993575080511580612993575080806020019051810190612993919061408b565b6124185760405162461bcd60e51b815260206004820152600260248201526114d560f21b60448201526064015b60405180910390fd5b612a0e82826040516024016129df9291906140a8565b60408051601f198184030181529190526020810180516001600160e01b0316632d839cb360e21b1790526130ea565b5050565b604080516001600160a01b0385811660248301528481166044830152606480830185905283518084039091018152608490920183526020820180516001600160e01b03166323b872dd60e01b1790529151600092839290881691612a76919061406f565b6000604051808303816000865af19150503d8060008114612ab3576040519150601f19603f3d011682016040523d82523d6000602084013e612ab8565b606091505b5091509150818015612ae2575080511580612ae2575080806020019051810190612ae2919061408b565b61109c5760405162461bcd60e51b815260206004820152600360248201526229aa2360e91b60448201526064016129c0565b60008060008360020b12612b2b578260020b612b38565b8260020b612b3890613da3565b9050612b47620d89e7196140ca565b62ffffff16811115612b7f5760405162461bcd60e51b81526020600482015260016024820152601560fa1b60448201526064016129c0565b600081600116600003612b9657600160801b612ba8565b6ffffcb933bd6fad37aa2d162d1a5940015b6001600160881b031690506002821615612bdd576080612bd8826ffff97272373d413259a46990580e213a613fc5565b901c90505b6004821615612c07576080612c02826ffff2e50f5f656932ef12357cf3c7fdcc613fc5565b901c90505b6008821615612c31576080612c2c826fffe5caca7e10e4e61c3624eaa0941cd0613fc5565b901c90505b6010821615612c5b576080612c56826fffcb9843d60f6159c9db58835c926644613fc5565b901c90505b6020821615612c85576080612c80826fff973b41fa98c081472e6896dfb254c0613fc5565b901c90505b6040821615612caf576080612caa826fff2ea16466c96a3843ec78b326b52861613fc5565b901c90505b6080821615612cd9576080612cd4826ffe5dee046a99a2a811c461f1969c3053613fc5565b901c90505b610100821615612d04576080612cff826ffcbe86c7900a88aedcffc83b479aa3a4613fc5565b901c90505b610200821615612d2f576080612d2a826ff987a7253ac413176f2b074cf7815e54613fc5565b901c90505b610400821615612d5a576080612d55826ff3392b0822b70005940c7a398e4b70f3613fc5565b901c90505b610800821615612d85576080612d80826fe7159475a2c29b7443b29c7fa6e889d9613fc5565b901c90505b611000821615612db0576080612dab826fd097f3bdfd2022b8845ad8f792aa5825613fc5565b901c90505b612000821615612ddb576080612dd6826fa9f746462d870fdf8a65dc1f90e061e5613fc5565b901c90505b614000821615612e06576080612e01826f70d869a156d2a1b890bb3df62baf32f7613fc5565b901c90505b618000821615612e31576080612e2c826f31be135f97d08fd981231505542fcfa6613fc5565b901c90505b62010000821615612e5d576080612e58826f09aa508b5b7a84e1c677de54f3e99bc9613fc5565b901c90505b62020000821615612e88576080612e83826e5d6af8dedb81196699c329225ee604613fc5565b901c90505b62040000821615612eb2576080612ead826d2216e584f5fa1ea926041bedfe98613fc5565b901c90505b62080000821615612eda576080612ed5826b048a170391f7dc42444e8fa2613fc5565b901c90505b60008460020b1315612ef557612ef2816000196140e3565b90505b612f03600160201b826140f7565b15612f0f576001612f12565b60005b612f239060ff16602083901c613bd3565b949350505050565b6000826001600160a01b0316846001600160a01b03161115612f4b579192915b6000612f6e856001600160a01b0316856001600160a01b0316600160601b6130f3565b9050611799612f908483612f82898961410b565b6001600160a01b03166130f3565b613277565b6000826001600160a01b0316846001600160a01b03161115612fb5579192915b612f23612f9083600160601b612f82888861410b565b6040516024810183905260448101829052612a0e9060640160408051601f198184030181529190526020810180516001600160e01b0316637b3338ad60e11b1790526130ea565b6001600160a01b031690565b61306181604051602401613032919061386d565b60408051601f198184030181529190526020810180516001600160e01b031663104c13eb60e21b1790526130ea565b50565b612a0e828260405160240161307a92919061412b565b60408051601f198184030181529190526020810180516001600160e01b031663643fd0df60e01b1790526130ea565b613061816040516024016130bf91815260200190565b60408051601f198184030181529190526020810180516001600160e01b031663f82c50f160e01b1790525b61306181613292565b600080806000198587098587029250828110838203039150508060000361312c576000841161312157600080fd5b508290049050610c7b565b80841161313857600080fd5b60008486880980840393811190920391905060008561315981600019613d54565b613164906001613bd3565b169586900495938490049360008190030460010190506131848184613fc5565b909317926000613195876003613fc5565b60021890506131a48188613fc5565b6131af906002613d54565b6131b99082613fc5565b90506131c58188613fc5565b6131d0906002613d54565b6131da9082613fc5565b90506131e68188613fc5565b6131f1906002613d54565b6131fb9082613fc5565b90506132078188613fc5565b613212906002613d54565b61321c9082613fc5565b90506132288188613fc5565b613233906002613d54565b61323d9082613fc5565b90506132498188613fc5565b613254906002613d54565b61325e9082613fc5565b905061326a8186613fc5565b9998505050505050505050565b806001600160801b038116811461328d57600080fd5b919050565b60006a636f6e736f6c652e6c6f679050600080835160208501845afa505050565b6001600160a01b038116811461306157600080fd5b8060020b811461306157600080fd5b6000806000606084860312156132ec57600080fd5b83356132f7816132b3565b92506020840135613307816132c8565b91506040840135613317816132c8565b809150509250925092565b801515811461306157600080fd5b60008060006060848603121561334557600080fd5b8335613350816132b3565b9250602084013561336081613322565b929592945050506040919091013590565b6001600160a01b0391909116815260200190565b6000806000806080858703121561339b57600080fd5b84356133a6816132b3565b93506020850135925060408501356133bd816132c8565b915060608501356133cd816132c8565b939692955090935050565b803563ffffffff8116811461328d57600080fd5b600080600080600060a0868803121561340457600080fd5b853561340f816132b3565b945060208601359350613424604087016133d8565b92506060860135613434816132b3565b91506080860135613444816132b3565b809150509295509295909350565b600060a0828403121561346457600080fd5b50919050565b60006060828403121561346457600080fd5b60008083601f84011261348e57600080fd5b5081356001600160401b038111156134a557600080fd5b6020830191508360208285010111156134bd57600080fd5b9250929050565b600080600080600061014086880312156134dd57600080fd5b85356134e8816132b3565b94506134f78760208801613452565b93506135068760c0880161346a565b92506101208601356001600160401b0381111561352257600080fd5b61352e8882890161347c565b969995985093965092949392505050565b600080600080600080610160878903121561355957600080fd5b8635613564816132b3565b95506135738860208901613452565b94506135828860c0890161346a565b935061012087013592506101408701356001600160401b038111156135a657600080fd5b6135b289828a0161347c565b979a9699509497509295939492505050565b600080600080600061010086880312156135dd57600080fd5b85356135e8816132b3565b94506135f78760208801613452565b935060c0860135613607816132b3565b925060e08601356001600160401b0381111561352257600080fd5b60006020828403121561363457600080fd5b610c7b826133d8565b60006020828403121561364f57600080fd5b8135610c7b816132b3565b6000806000806060858703121561367057600080fd5b613679856133d8565b93506020850135925060408501356001600160401b0381111561369b57600080fd5b6136a78782880161347c565b95989497509550505050565b60006101008201905082511515825260208301511515602083015260408301511515604083015260608301511515606083015260808301516136f9608084018215159052565b5060a083015161370d60a084018215159052565b5060c083015161372160c084018215159052565b5060e083015161373560e084018215159052565b5092915050565b6000806040838503121561374f57600080fd5b823591506020830135613761816132b3565b809150509250929050565b600080600080600080610120878903121561378657600080fd5b8635613791816132b3565b95506137a08860208901613452565b945060c08701356137b0816132b3565b935060e08701356137c0816132c8565b92506101008701356001600160401b038111156135a657600080fd5b600080602083850312156137ef57600080fd5b82356001600160401b0381111561380557600080fd5b6138118582860161347c565b90969095509350505050565b60005b83811015613838578181015183820152602001613820565b50506000910152565b6000815180845261385981602086016020860161381d565b601f01601f19169290920160200192915050565b602081526000610c7b6020830184613841565b634e487b7160e01b600052604160045260246000fd5b604051601f8201601f191681016001600160401b03811182821017156138be576138be613880565b604052919050565b60006001600160401b038211156138df576138df613880565b5060051b60200190565b600082601f8301126138fa57600080fd5b8135602061390f61390a836138c6565b613896565b82815260059290921b8401810191818101908684111561392e57600080fd5b8286015b8481101561395057613943816133d8565b8352918301918301613932565b509695505050505050565b6000806000806080858703121561397157600080fd5b84359350602080860135935060408601356001600160401b038082111561399757600080fd5b818801915088601f8301126139ab57600080fd5b81356139b961390a826138c6565b81815260059190911b8301840190848101908b8311156139d857600080fd5b938501935b828510156139ff5784356139f0816132b3565b825293850193908501906139dd565b965050506060880135925080831115613a1757600080fd5b5050613a25878288016138e9565b91505092959194509250565b6000806000806000806101208789031215613a4b57600080fd5b8635613a56816132b3565b9550613a658860208901613452565b945060c0870135935060e087013592506101008701356001600160401b038111156135a657600080fd5b600060208284031215613aa157600080fd5b5035919050565b600082601f830112613ab957600080fd5b81356001600160401b03811115613ad257613ad2613880565b613ae5601f8201601f1916602001613896565b818152846020838601011115613afa57600080fd5b816020850160208301376000918101602001919091529392505050565b600080600060608486031215613b2c57600080fd5b8335613b37816132b3565b92506020840135613b47816132b3565b915060408401356001600160401b03811115613b6257600080fd5b613b6e86828701613aa8565b9150509250925092565b600080600060608486031215613b8d57600080fd5b833592506020840135915060408401356001600160401b03811115613bb157600080fd5b613b6e868287016138e9565b634e487b7160e01b600052601160045260246000fd5b8082018082111561228b5761228b613bbd565b80546001600160a01b0390811683526001820154808216602085015260a081901c62ffffff16604085015260b81c600290810b60608501529091015416608090910152565b6101008101613c3a8287613be6565b8460020b60a08301528360020b60c08301528260e083015295945050505050565b8051600f81900b811461328d57600080fd5b60008060408385031215613c8057600080fd5b613c8983613c5b565b9150613c9760208401613c5b565b90509250929050565b6000600f82900b6001607f1b8101613cba57613cba613bbd565b60000392915050565b6001600160801b0391909116815260200190565b600060208284031215613ce957600080fd5b5051919050565b6101208101613cff8286613be6565b8351151560a0830152602084015160c08301526040909301516001600160a01b031660e08201526101000152919050565b60008060408385031215613d4357600080fd5b505080516020909101519092909150565b8181038181111561228b5761228b613bbd565b6101208101613d768286613be6565b8351600290810b60a08401526020850151900b60c083015260409093015160e08201526101000152919050565b6000600160ff1b8201613db857613db8613bbd565b5060000390565b606081526000613dd26060830186613841565b60ff949094166020830152506001600160a01b0391909116604090910152919050565b63ffffffff841681528260208201526060604082015260006117996060830184613841565b93845263ffffffff92909216602084015260408301526001600160a01b0316606082015260800190565b63ffffffff82811682821603908082111561373557613735613bbd565b62ffffff818116838216028082169190828114613e8057613e80613bbd565b505092915050565b634e487b7160e01b600052601260045260246000fd5b600062ffffff80841680613eb457613eb4613e88565b92169190910492915050565b62ffffff81811683821601908082111561373557613735613bbd565b600060018201613eee57613eee613bbd565b5060010190565b600080600060608486031215613f0a57600080fd5b83356001600160401b03811115613f2057600080fd5b613f2c86828701613aa8565b935050602084013560ff81168114613f4357600080fd5b91506040840135613317816132b3565b600080600060608486031215613f6857600080fd5b835192506020840151613f7a816132b3565b6040850151909250613317816132b3565b6101008101613f9a8287613be6565b8460a08301528360c08301528260e083015295945050505050565b8183823760009101908152919050565b808202811582820484141761228b5761228b613bbd565b634e487b7160e01b600052603260045260246000fd5b600060018060a01b0380865116835280602087015116602084015262ffffff6040870151166040840152606086015160020b606084015280608087015116608084015280851660a08401525060e060c083015261179960e0830184613841565b60006020828403121561406457600080fd5b8151610c7b816132c8565b6000825161408181846020870161381d565b9190910192915050565b60006020828403121561409d57600080fd5b8151610c7b81613322565b6040815260006140bb6040830185613841565b90508260208301529392505050565b60008160020b627fffff198103613cba57613cba613bbd565b6000826140f2576140f2613e88565b500490565b60008261410657614106613e88565b500690565b6001600160a01b0382811682821603908082111561373557613735613bbd565b828152604060208201526000612f23604083018461384156fea2646970667358221220327d906970be24f906e9164f481f11e15585ef386119173aafc26ccf78988b5064736f6c63430008140033a2646970667358221220d3b96c9ae21e71914f3fd96cbf5b62fdf275c655a8519d55a463984970c7d6bd64736f6c63430008140033",
  "devdoc": {
    "kind": "dev",
    "methods": {},
    "version": 1
  },
  "userdoc": {
    "kind": "user",
    "methods": {},
    "version": 1
  },
  "storageLayout": {
    "storage": [
      {
        "astId": 12449,
        "contract": "contracts/Hooks/Utils/HooksFactory.sol:UniswapHooksFactory",
        "label": "hooks",
        "offset": 0,
        "slot": "0",
        "type": "t_array(t_address)dyn_storage"
      }
    ],
    "types": {
      "t_address": {
        "encoding": "inplace",
        "label": "address",
        "numberOfBytes": "20"
      },
      "t_array(t_address)dyn_storage": {
        "base": "t_address",
        "encoding": "dynamic_array",
        "label": "address[]",
        "numberOfBytes": "32"
      }
    }
  }
}